:1000000001308A00B7290000013083168600811371
:10001000FF30850083122811280883168700831279
:1000200007110C309700A810280883168700831248
:1000300087100C309D000030F80006389200FF3029
:100040008316920083128A110A12D8292E0895006D
:100050002E089B002E08A400080083168610831229
:1000600086148316061183120611831686118312D5
:10007000861583160612831206128A110A12E129C6
:100080008C1E5728B1018C1E43281A08B0000A3C68
:100090000319542831082E07840083132F1883175F
:1000A00030088000B10A43280130F8005928003098
:1000B000F8008A110A12E5292E08840083132F18EC
:1000C00083170008313C03196828FF30F8007028B6
:1000D00001302E07840083132F1883170008F800BF
:1000E0008A110A12F2292E08840083132F1883170D
:1000F0000008303C03197F28FF30F80087280130C2
:100100002E07840083132F1883170008F8008A1124
:100110000A12FE29FF308316850083120508FF3A74
:100120001F39F8008A110A12042AF701F80133086E
:1001300003103418F707F70CF80CB418F707F70C8E
:10014000F80C3419F707F70CF80CB419F707F70C8B
:10015000F80C341AF707F70CF80CB41AF707F70C79
:10016000F80C341BF707F70CF80CB41BF707F70C67
:10017000F80C08002008043C031DC1280030F800DA
:10018000EF282008103C031DC828FD30F800EF2898
:1001900020080C3C031DCF28FE30F800EF28200873
:1001A000083C031DD628FF30F800EF282008023C49
:1001B000031DDD280130F800EF282008063C031D50
:1001C000E4280230F800EF28200BEA280330F8007A
:1001D000EF28ED282308F800EF282008A30078086E
:1001E000AE0027082E02AF00FA012F08AF1BFA035A
:1001F000A5077A0803187A0FA6073230B3002E0835
:10020000B4009520B2017808B100B11BB203B3016C
:100210000A30B2002608B5002508B40033083506B8
:100220008039B700B31F1929B209B309B20A0319FB
:10023000B30AB51F2029B409B509B40A0319B50AD0
:100240001030B600F701FA01B30CB20C031C2E29D2
:100250003408F7070318FA0A3508FA07FA0CF70CFE
:10026000F90CF80CB60B2429B71F3B29F809F9093A
:10027000F80A0319F90A7908FA007808B107790829
:100280000318790FB2071430B3002F08B40095207B
:100290007808FA01F700F71BFA033107F800320873
:1002A0000318320FFA077808B0003008B100B1081F
:1002B000031D5E292408950024089B003108B11F06
:1002C00063293108003CF700F71B9F2977082402B7
:1002D00003189F293108B11F6F293108003CB20073
:1002E0003108B3003208B400330834068039B60050
:1002F000B31F7C29B309B30AB41F8029B409B40A17
:100300003408F8013302031888293308F7009429C8
:10031000F7010830B500B30DF70D34087702031864
:10032000F700F80DB50B8B29B61F9829F809F80AC4
:100330007808B3002408B40095207808B100B11BF8
:10034000AC293108003C0318AC2924089500310879
:100350002402B2009B00B22931082407B2009500A4
:1003600024089B002E08A7008A110A12072A0308F6
:100370001F398300813083169900A6309800903091
:1003800083129800A3018030A400A001A101A20162
:10039000FF30A800A90183161F149F141F159F1179
:1003A00007309C0083138312A501A601A70104282E
:1003B0008316061483120618D829FF30AE002620B3
:1003C0002D28AF012A30AE004028F8080319EE2985
:1003D000A908031DEE290130A900E129AF012A3047
:1003E000AE005C287808AD00AD080319FA292D0885
:1003F000AE002620AF012A30AE0073287808A10095
:10040000A1080319032A8A287808A000BA28E1293C
:060410000030F80063005B
:02400E00723FFF
:00000001FF
;PIC16F877A
;CRC=3CD9  CREATED="27-May-19 05:23"
