:1000000002308A00332A0000313431343A34323439
:1000100038343A34353434340034013083168600B1
:100020008113FF30850083122E112E08831687005E
:10003000831207110C309700AE102E08831687002C
:10004000831287100C309D000030F80006389200B3
:10005000FF308316920083128A110A125A2A34083A
:10006000950034089B003408A6000800831686100B
:1000700083128614831606118312061183168611C5
:100080008312861583160612831206128A110A122B
:10009000632A8C1E6028B7018C1E4C281A08B600F3
:1000A0000A3C03195D283708340784008313351888
:1000B000831736088000B70A4C280130F800622800
:1000C0000030F8008A110A12672A3408840083136A
:1000D000351883170008313C03197128FF30F800E8
:1000E00079280130340784008313351883170008FA
:1000F000F8008A110A12742A340884008313351810
:1001000083170008323C03198828FF30F800902834
:100110000130340784008313351883170008F80072
:100120008A110A12802AFF3083168500831205087F
:10013000FF3A1F39F800080020081B3C031DA428C3
:100140000130F800A628A6280030F800F8080319A6
:10015000B7280030FA000430B4002A083402AC009A
:100160007A08AD002B08031C2B0FAD02BA283130E2
:10017000AA00AB00AD08031DC0282C08323C031CAC
:10018000A30A2308F8008A110A12892A22082302E6
:10019000031DCD280130F800CF280030F8008A1167
:1001A0000A128A2AF701F8013A0803103B18F707E8
:1001B000F70CF80CBB18F707F70CF80C3B19F7070E
:1001C000F70CF80CBB19F707F70CF80C3B1AF707FC
:1001D000F70CF80CBB1AF707F70CF80C3B1BF707EA
:1001E000F70CF80CBB1BF707F70CF80C08002008FD
:1001F000043C031DFE280030F8002C292008103C88
:10020000031D0529FD30F8002C2920080C3C031D96
:100210000C29FE30F8002C292008083C031D132966
:10022000FF30F8002C292008023C031D1A29013058
:10023000F8002C292008063C031D21290230F80073
:100240002C29200B27290330F8002C292A292508DE
:10025000F8002C292008A5007808B50029083502E7
:10026000B600FA013608B61BFA03A7077A08031886
:100270007A0FA8073230BA003508BB00D220B90186
:100280007808B800B81BB903BA010A30B9002808C9
:10029000BC002708BB003A083C068039BE00BA1FE4
:1002A0005629B909BA09B90A0319BA0ABC1F5D2946
:1002B000BB09BC09BB0A0319BC0A1030BD00F70119
:1002C000FA01BA0CB90C031C6B293B08F707031899
:1002D000FA0A3C08FA07FA0CF70CF90CF80CBD0BFB
:1002E0006129BE1F7829F809F909F80A0319F90AE2
:1002F0007908FA007808B80779080318790FB90760
:100300001430BA003608BB00D2207808FA01F70092
:10031000F71BFA033807F80039080318390FFA07F2
:100320007808B7003708B800B808031D9B292608CD
:10033000950026089B003808B81FA0293808003C03
:10034000F700F71BDC29770826020318DC29380898
:10035000B81FAC293808003CB9003808BA00390881
:10036000BB003A083B068039BD00BA1FB929BA095B
:10037000BA0ABB1FBD29BB09BB0A3B08F8013A02F8
:100380000318C5293A08F700D129F7010830BC0045
:10039000BA0DF70D3B0877020318F700F80DBC0BF8
:1003A000C829BD1FD529F809F80A7808BA00260817
:1003B000BB00D2207808B800B81BE9293808003CF7
:1003C0000318E9292608950038082602B9009B0081
:1003D000EF2938082607B900950026089B00350844
:1003E000A90008000030F8008A110A128F2A83162B
:1003F0008610831286108316061183120611831647
:1004000086118312861183160612831206128A1130
:100410000A12932A2308053C0318162A05302302E2
:100420002102031D162A0130F800182A0030F800B6
:100430008A110A12952A08001B2205302107FF3E67
:10044000B400A3013408230203192B2A932078084F
:10045000A000F720222A1B22A201A101A301A401CE
:100460008A110A129B2A03081F39830081308316E0
:100470009900A6309800903083129800A501803032
:10048000A600AB01AA01A001A301A101A201A40140
:10049000FF30AE00AF0183161F149F141F159F116C
:1004A00007309C0083138312A701A801A901AC01A6
:1004B000AD010D2883160614831206185A2AFF3040
:1004C000B4002F203628B5013030B4004928F80890
:1004D0000319702AAF08031D702A0130AF00632A88
:1004E000B5013030B40065287808B300B3080319AB
:1004F0007C2A3308B4002F20B5013030B4007C28AA
:100500007808A200A2080319852A93207808A00081
:100510009C28C628F80803198D2AF720F229F80824
:100520000319942AF7298E2A0A2AF80803199B2A04
:0E0530000130A4001C2A632A0030F80063008A
:02400E00723FFF
:00000001FF
;PIC16F877A
;CRC=A16E  CREATED="27-May-19 11:28"
