:1000000001308A007C2900000130831686008113AC
:10001000FF30850083122811280883168700831279
:1000200007110C309700A810280883168700831248
:1000300087100C309D000030F80006389200FF3029
:100040008316920083128A110A129C2929089500AE
:1000500029089B002908A4008A110A12A4298316E2
:1000600086108312861483160611831206118316D6
:1000700086118312861583160612831206128A11C0
:100080000A12A5298C1E4A288C1E44281A08CF3E25
:10009000F8004C28FF30F8008A110A12A629FF3018
:1000A0008316850083120508FF3A1F39F8008A116C
:1000B0000A12AC29F701F8012E0803102F18F707D0
:1000C000F70CF80CAF18F707F70CF80C2F19F70717
:1000D000F70CF80CAF19F707F70CF80C2F1AF70705
:1000E000F70CF80CAF1AF707F70CF80C2F1BF707F3
:1000F000F70CF80CAF1BF707F70CF80C08002008FA
:10010000043C031D86280030F800B4282008103C69
:10011000031D8D28FD30F800B42820080C3C031D79
:100120009428FE30F800B4282008083C031D9B28C2
:10013000FF30F800B4282008023C031DA22801303B
:10014000F800B4282008063C031DA9280230F80056
:10015000B428200BAF280330F800B428B2282308B5
:10016000F800B4282008A3007808A900270829026D
:10017000AA00FA012A08AA1BFA03A5077A0803189D
:100180007A0FA6073230AE002908AF005A20AD0121
:100190007808AC00AC1BAD03AE010A30AD002608F8
:1001A000B0002508AF002E0830068039B200AE1F1F
:1001B000DE28AD09AE09AD0A0319AE0AB01FE52865
:1001C000AF09B009AF0A0319B00A1030B100F70146
:1001D000FA01AE0CAD0C031CF3282F08F707031827
:1001E000FA0A3008FA07FA0CF70CF90CF80CB10B04
:1001F000E928B21F0029F809F909F80A0319F90AD0
:100200007908FA007808AC0779080318790FAD0768
:100210001430AE002A08AF005A207808FA01F7001F
:10022000F71BFA032C07F8002D0803182D0FFA0707
:100230007808AB002B08AC00AC08031D2329240868
:10024000950024089B002C08AC1F28292C08003C92
:10025000F700F71B642977082402031864292C0887
:10026000AC1F34292C08003CAD002C08AE002D0832
:10027000AF002E082F068039B100AE1F4129AE090C
:10028000AE0AAF1F4529AF09AF0A2F08F8012E02A9
:1002900003184D292E08F7005929F7010830B0003E
:1002A000AE0DF70D2F0877020318F700F80DB00B0D
:1002B0005029B11F5D29F809F80A7808AE00240812
:1002C000AF005A207808AC00AC1B71292C08003C08
:1002D00003187129240895002C082402AD009B0006
:1002E00077292C082407AD00950024089B002908D5
:1002F000A7008A110A12AF2903081F398300813031
:1003000083169900A6309800903083129800A301BC
:100310008030A400A001A101A201FF30A800831633
:100320001F149F141F159F1107309C008313831205
:10033000A501A601A7010428831606148312061836
:100340009C29FF30A90026282F2842287808A100E0
:10035000A1080319A8294F287808A0007F28A529FB
:060360000030F80063000C
:02400E00723FFF
:00000001FF
;PIC16F877A
;CRC=A27C  CREATED="27-May-19 04:37"
